S00D000050316E72322E7372656384
S11300000C9434000C943E000C943E000C943E007E
S11300100C943E000C943E000C943E000C943E0064
S11300200C943E000C943E000C943E000C943E0054
S11300300C943E000C943E000C943E000C943E0044
S11300400C943E000C943E000C943E000C943E0034
S11300500C943E000C943E000C943E000C943E0024
S11300600C943E000C943E0011241FBECFEFD4E04C
S1130070DEBFCDBF0E944E000C9470000C940000B3
S11300808AB18AB98AB180648AB984B5836884BD27
S113009085B5816085BD089587BD08950E9440009F
S11300A0C0E0D0E0C832D1055CF4CE010E944C001F
S11300B087E893E10197F1F700C000002196F2CFA1
S11300C0C8E2D0E01C161D065CF7CE010E944C006D
S11300D087E893E10197F1F700C000002197F2CF80
S10700E0F894FFCFBE
S9030000FC
